:020000041000EA
:1000000000B5324B212058609868022188439860DF
:10001000D860186158612E4B002199600221596106
:100020000121F02299502B49196001219960352056
:1000300000F044F80222904214D00621196600F024
:1000400034F8196E01211966002018661A6600F04E
:100050002CF8196E196E196E052000F02FF8012189
:100060000842F9D1002199601B49196000215960AB
:100070001A491B48016001219960EB211966A021F2
:10008000196600F012F800219960164914480160C1
:100090000121996001BC002800D000471248134993
:1000A000086003C880F30888084703B5996A0420EC
:1000B0000142FBD001200142F8D103BD02B5186610
:1000C0001866FFF7F2FF186E186E02BD00000240BE
:1000D000000000180000070000035F00212200005C
:1000E000F4000018222000A00001001008ED00E03C
:1000F00000000000000000000000000074B24E7A12
:1001000000200420F7010010CB010010CD010010E9
:10011000C9010010C9010010C9010010C901001077
:10012000C9010010C9010010C9010010CF01001061
:10013000C9010010C9010010D1010010D301001045
:10014000C1010010C1010010C1010010C101001067
:10015000C1010010C1010010C1010010C101001057
:10016000C1010010C1010010C1010010C101001047
:10017000C1010010C1010010C1010010C101001037
:10018000C1010010C1010010C1010010C101001027
:10019000C1010010C1010010C1010010C101001017
:1001A000C1010010C1010010C1010010C101001007
:1001B000C1010010C1010010C1010010C1010010F7
:1001C000EFF30580103800BE00BE00BE00BE00BECA
:1001D00000BE00BEF2EB8871148000103480001065
:1001E0003802001090A31AE71E481F49086006C88D
:1001F00081F3088810471D480068002801D019487D
:10020000F3E70DA40ECC002902D000F012F8F9E7B4
:100210001749184A002000E001C19142FCD116495B
:100220008847164988471649884700BEFDE701C937
:1002300001C29A42FBD3704734800010C0000020F6
:10024000300E0020A48D00100000042000000420C7
:10025000A48D0010001004200010042000000000F5
:10026000704700000000000008ED00E0000000D032
:10027000300E0020F414002085610010950D001050
:1002800027610010F8B5C04606480749091A8B10C7
:10029000C90FC91810B5491003D0044B002B00D06A
:1002A000984710BD300E0020300E002000000000E6
:1002B000054B10B5002B03D00449054800E000BFF2
:1002C000FFF7E2FF10BDC04600000000B81200209A
:1002D0001075001080B582B000AF78607B68002296
:1002E0000121180000F060FFC046BD4602B080BD8D
:1002F00080B582B000AF78607B68012200211800D1
:1003000000F052FFC046BD4602B080BD80B582B04D
:1003100000AF78607B6800220021180000F044FFE5
:10032000C046BD4602B080BD80B582B000AF7860E7
:10033000D0231B065B6801217A6891400A001340B4
:100340005A1E9341DBB21800BD4602B080BD80B595
:1003500082B000AF7860D0231B067A685A61C0462D
:10036000BD4602B080BD80B582B000AF7860D023BA
:100370001B067A689A61C046BD4602B080BD80B552
:1003800084B000AF78600A00FB1C1A7001227B6801
:100390009A401300FB60FB1C1B78002B04D0FB6809
:1003A0001800FFF7D4FF03E0FB681800FFF7DBFF3E
:1003B000C046BD4604B080BD80B582B000AF786055
:1003C000D0231B067A685A62C046BD4602B080BD83
:1003D00080B582B000AF7860D0231B067A689A623D
:1003E000C046BD4602B080BD80B584B000AF786025
:1003F0000A00FB1C1A7001227B689A401300FB6004
:10040000FB1C1B78002B04D0FB681800FFF7D4FFFF
:1004100003E0FB681800FFF7DBFFC046BD4604B0F1
:1004200080BD000080B582B000AF78607B68054A6F
:10043000944663445A425341DBB21800BD4602B0B1
:1004400080BDC0460080FCBF80B582B000AF786040
:100450007B681800FFF7E6FF7B681800BD4602B016
:1004600080BD80B582B000AF78607B681800FFF770
:10047000EBFF03009B69202213405A425341DBB239
:100480001800BD4602B080BD90B587B000AFF860DF
:10049000B9607A6000237B6119E0C046FB681800F0
:1004A000FFF7DFFF03001A0001235340DBB2002BEC
:1004B000F3D1BB685A1CBA601C78FB681800FFF7C0
:1004C000C3FF030022001A607B6901337B617A69F4
:1004D0007B689A42E2D3C046C046BD4607B090BD95
:1004E00080B582B000AF78600A00FB1C1A70F91C5E
:1004F0007B6801221800FFF7C7FFC046BD4602B067
:1005000080BD000080B582B000AF78600A00FB1C9F
:100510001A707B681800FFF785FF02000B4B520032
:10052000D35E1A00FB1C1B789A4204D17B680D2114
:100530001800FFF7D5FFFB1C1A787B681100180024
:10054000FFF7CEFFC046BD4602B080BDEC140020D0
:1005500080B584B000AF786039600F23FB180022AB
:100560001A701DE00F23FB181B78002B07D03B6887
:100570001A787B6811001800FFF7B2FF06E03B68AD
:100580001A787B6811001800FFF7BCFF3B685A1C03
:100590003A601A780F23FB180D3A51424A411A70FB
:1005A0003B681B78002BDDD1C046C046BD4604B079
:1005B00080BD80B582B000AF78607B681F211800D5
:1005C00000F0BAFD7B681800FFF7A0FE7B680021F1
:1005D000180000F029FEC046BD4602B080BD0000F4
:1005E00080B588B000AF78607B681B030D4AFA6164
:1005F000BB61E023DB017B61FB691A68BB69534087
:100600007A691340FA693A61FB603B6980225201C2
:1006100094466344FA681A60C046C046C046BD4668
:1006200008B080BD00C0044080B586B000AF0200B5
:10063000FB1D1A70FB1D1B78002B0BD00D4B7B6133
:1006400002233B617B6980229201944663443A69AC
:100650001A600BE0074BFB600223BB60FB68C02203
:10066000920194466344BA681A60C046C046BD46CB
:1006700006B080BD00C0044080B582B000AF0D4B15
:100680007B6004233B607B68802292019446634434
:100690003A681A60C04600E0C046064B1A688023DC
:1006A0005B001340F8D0034B5B689BB21800BD465B
:1006B00002B080BD00C00440B0B586B000AF0500F8
:1006C0000C0010001900FB1D2A1C1A70BB1D221CF7
:1006D0001A707B1D021C1A703B1D0A1C1A70FB1D30
:1006E0001B785BB2002B00DA59E17B1D1B785BB2F3
:1006F000002B00DA53E1BB1D1B781F2B00D94EE104
:100700003B1D1B781F2B00D949E17A1DFB1D127878
:100710001B789A4209D37B1D1A78FB1D1B78D31ACC
:1007200001331BB2DB181BB208E0FB1D1A787B1DDE
:100730001B78D31A01331BB2DB181BB20C22BA1878
:1007400013803A1DBB1D12781B789A4209D33B1DBA
:100750001A78BB1D1B78D31A01331BB2DB181BB2EE
:1007600008E0BB1D1A783B1D1B78D31A01331BB25E
:10077000DB181BB20A22BA181380FA1D7B1D1278EF
:100780001B789A4201D2012201E001235A42092337
:10079000FB181A70BA1D3B1D12781B789A4201D2C1
:1007A000012201E001235A420823FB181A700C2190
:1007B0007A180A203B180024125F00241B5F9A421B
:1007C00000DC75E03B1800229A5E7B1800215B5E1E
:1007D000D31A5A101623FB181A801423FB18FA1D7B
:1007E00012781A801223FB18BA1D12781A803EE084
:1007F0001423FB181B88D8B212243B191B88D9B2CA
:10080000694B012206F01DFB16217B181A880A236A
:10081000FB181B88D3189AB27B181A807B18002209
:100820009B5E5A000C203B1800255B5F9A4212DB4E
:100830000823FB181B785BB29AB23B191B88D318AC
:100840009AB23B191A807B181A883B181B88D31A56
:100850009AB27B181A800923FB181B785BB29AB2F4
:1008600014217B181B88D3189AB27B181A8009238D
:10087000FB181B787F2B0CD91423FB1800229A5EDF
:100880007B1D1B78D017D90F9A4248410300DBB279
:100890000BE01423FB1800229B5E7A1D1278D80F00
:1008A000D1179A4248410300DBB2002BA0D176E079
:1008B0000C23FB1800229A5E0A23FB1800215B5EC2
:1008C000D31A5A101623FB181A801023FB18FA1D8E
:1008D00012781A800E23FB18BA1D12781A803EE097
:1008E00010243B191B88D8B20E23FB181B88D9B2E1
:1008F0002D4B012206F0A5FA16217B181A880C232D
:10090000FB181B88D3189AB27B181A807B18002218
:100910009B5E5A000A203B1800255B5F9A4212DB5F
:100920000923FB181B785BB29AB23B191B88D318BA
:100930009AB23B191A807B181A883B181B88D31A65
:100940009AB27B181A800823FB181B785BB29AB204
:100950000E217B181B88D3189AB27B181A800823A3
:10096000FB181B787F2B0CD90E23FB1800229A5EF4
:100970003B1D1B78D017D90F9A4248410300DBB2C8
:100980000BE00E23FB1800229B5E3A1D1278D80F55
:10099000D1179A4248410300DBB2002BA0D1C046D8
:1009A000BD4606B0B0BDC046B00F002080B584B0D3
:1009B00000AF0200FB1D1A700F23FB1800221A70F3
:1009C00015E00F217B181A780E4BD200D35CFA1D6C
:1009D00012789A4205D17B181B78DA00094BD3189C
:1009E0000BE00F217B181A787B1801321A700F2345
:1009F000FB181B78592BE4D900231800BD4604B01E
:100A000080BDC046E40A0020F0B589B002AFF860AE
:100A10000C00100019000A23FB18221C1A8008235E
:100A2000FB18021C1A80FB1D0A1C1A7000233B6174
:100A3000C1E0FB685A1CFA601B781800FFF7B6FF8C
:100A400003003B613B69002B00D1BAE01723FB1880
:100A500000221A7074E01623FB1800221A7062E05C
:100A60000A26BB191B88DAB21723FB181B78D31888
:100A7000DAB23B69596816257B191B789B00CB18A5
:100A80001B785BB2DBB2F91D09784B43DBB2D3189C
:100A9000D8B20822BB181B88DAB23B6959687B19A7
:100AA0001B789B00CB185B785BB2DBB2F91D097831
:100AB0004B43DBB2D318DCB2BB191B88DAB2172365
:100AC000FB181B78D318DAB23B6959682E007B19E2
:100AD0001B789B00CB189B785BB2DBB2F91D0978C1
:100AE0004B43DBB2D318DDB20822BB181B88DAB245
:100AF0003B695968BB191B789B00CB18DB785BB24C
:100B0000DBB2F91D09784B43DBB2D318DAB22F4BB5
:100B1000009313002A002100FFF7CEFDBB191A78BD
:100B2000BB1901321A703B695B781622BA18127829
:100B30009A4295D317217B181A787B1801321A70C4
:100B40001723FA18282308215B18DB1912781B7861
:100B50009A4200D27FE70A203B180021595EFB1D14
:100B60001A7813009B009B18CB187A2B0FDCFB1D07
:100B70001B789BB21A1C9200D3189AB23B181B88A0
:100B8000D3189BB201339AB23B181A8013E00A23A0
:100B9000FB1800221A80FB1D1B789BB21A1CD20086
:100BA000D31A9AB208217B181B88D3189BB2013341
:100BB0009AB27B181A80FB681B78002B00D038E7AC
:100BC00000E0C046BD4607B0F0BDC046B00F0020F3
:100BD000B0B58CB000AFF860F9682348814202D903
:100BE000224B1B6A3BE0F968490AF962F96A072956
:100BF00001D90721F9621D49F86A80004158B9629C
:100C0000F96A481C1949800041587962F968C90598
:100C1000C90D3962786AB96A411AF961F9693960AE
:100C2000C9177960396A0A0000210B0038687968B1
:100C300003F0A0FC02000B001000190080225200FB
:100C4000002312184B413A617B617B69DB053A69ED
:100C5000540A1C437B695D122200BB6AD31818003A
:100C6000BD460CB0B0BDC046FE0F0000B40D002064
:100C700080B586B000AFF860B9601900FB1D1A702E
:100C8000BB1D0A1C1A70BB1D1B785BB2BA685343AC
:100C90001A00FB681A60BA68FB685A60FB68BA1DE4
:100CA00012781A72FB68FA1D12785A72FB680022D9
:100CB0009A721723FB1800221A7012E017217B1872
:100CC0001B785BB2FA6802339B00D3180433BA680E
:100CD0001A607B181B785BB2DBB20133DAB27B1887
:100CE0001A701723FA18BB1D127852B21B785BB228
:100CF0009A42E3DBC046C046BD4606B080BD80B523
:100D000082B000AF786039607B681B6819007B682F
:100D10009B7A5BB27A6802339B00D31804331B685A
:100D2000CB1A1A007B681A607B689B7A5BB27A6880
:100D300002339B00D31804333A681A607B681B683F
:100D40001A003B68D3181A007B681A607B689B7A8C
:100D50005BB2DBB20133DBB25AB27B689A727B685A
:100D60000A229A567B681B7A5BB29A4202DB7B6846
:100D700000229A727B681B687A68527A52B21341D9
:100D80001A007B685A607B685B681800BD4602B039
:100D900080BD000090B583B002AFE1235B02964AAC
:100DA0001900100001F01CFF0221002000F0C4F91E
:100DB0000221012000F0C0F9062000F06BFA0021AA
:100DC0000620FFF711FB0620FFF792FA8B4A8C4BA7
:100DD0001100180005F0C4FC0321042000F0ACF958
:100DE0000321052000F0A8F90420FFF773FA05207D
:100DF000FFF770FA192000F04DFA01211920FFF7D2
:100E0000F3FA00211920FFF7BAFA05F00DFF1A20B6
:100E1000FFF7CFFB0120FFF707FC05F0CDFF002116
:100E2000002005F037FF0020FFF7DAFBFFF724FC76
:100E300003001800FFF7CCFE0300190071481023CF
:100E40000422FFF715FF7048102304220021FFF74A
:100E50000FFF0420FFF7C4FBFFF70EFC03001A008E
:100E60006A4B1A80694B1B88180003F0CFFB031CE8
:100E7000674A111C181C03F0BAFB031C1A1C654BB3
:100E80001A60644B1B68181C03F0E2FB624A634B58
:100E900002F043FF02000B0010001900604A614B92
:100EA00002F04DFF02000B0000205F4902F035FF09
:100EB00002000B001000190003F002F80200524B70
:100EC00011001800FFF71BFF0300180003F098FB48
:100ED000021C564B1A60554B1B68181C03F0B8FBDC
:100EE00002000B00494909880C00514951480094FF
:100EF00005F0D4F8504B1A78504B1B784D480093AE
:100F0000130000220021FFF77FFD0020FFF768FBA0
:100F1000FFF7B2FB03001800FFF75AFE03001A00A8
:100F2000384B11001800FFF7EAFE0300180003F029
:100F300067FB021C424B1A60414B1B68181C03F0F4
:100F400087FB02000B003F493A4805F0A7F83A4BEF
:100F50001B781A1CD200D3189BB21AB2364B1978E0
:100F6000364B1B78334800930B000021FFF74CFDF4
:100F7000FFF782FB03001A0033492E4B180005F0DF
:100F80008DF82D4B1B781A1CD200D318DB189BB29E
:100F90001AB2294B1978294B1B78264800930B006D
:100FA0000021FFF731FD0620FFF7BEF9031E15D023
:100FB000234B1B68181C03F04BFB02000B0023495A
:100FC0001C4805F06BF81B4B0B4A19001000FFF78B
:100FD000BFFA01211920FFF7D2F903E000211920FF
:100FE000FFF7CDF91A4B180006F084F8184B1800DB
:100FF00006F0A0F82DE7C04600400340801A060026
:10100000200E00206C120020B4110020F0140020EB
:101010003333533AB0110020643BDF4F8D97E63FE6
:101020007FC2D9AD65325C3F00003B40001200201A
:101030001075001004120020DC0D0020DD0D0020D2
:10104000E814002028750010347500104475001055
:10105000B00F002080B582B000AF7860C046BD46BA
:1010600002B080BD80B582B000AF7860D0231B068F
:101070007A685A61C046BD4602B080BD80B582B074
:1010800000AF7860D0231B067A689A61C046BD46DF
:1010900002B080BD80B584B000AF78600A00FB1C50
:1010A0001A7001227B689A401300FB60FB1C1B78BE
:1010B000002B04D0FB681800FFF7D4FF03E0FB68A7
:1010C0001800FFF7DBFFC046BD4604B080BD80B509
:1010D00082B000AF7860D0231B067A685A62C0469F
:1010E000BD4602B080BD80B582B000AF7860D0232D
:1010F0001B067A689A62C046BD4602B080BD80B5C4
:1011000084B000AF78600A00FB1C1A7001227B6873
:101110009A401300FB60FB1C1B78002B04D0FB687B
:101120001800FFF7D4FF03E0FB681800FFF7DBFFB0
:10113000C046BD4604B080BD80B588B000AF7860C1
:101140000A00FB1C1A707B681800FFF783FF7B689E
:101150009B00134A94466344FB614023BB61C02358
:101160007B61FB691A68BB6953407A691340FA696D
:101170003A61FB603B698022520194466344FA68FD
:101180001A60C046C0460749FB1C1A787B68DB0022
:10119000CB1804331A60C046BD4608B080BDC046B7
:1011A00004C001400040014080B588B000AF7860C5
:1011B00008001100FB1C021C1A70BB1C0A1C1A70D0
:1011C0007B681800FFF746FF7B689B00154A99185B
:1011D000FB1C1B78002B01D0082200E00022BB1C66
:1011E0001B78002B01D0042300E000231343F96196
:1011F000BB610C237B61FB691A68BB6953407A6948
:101200001340FA693A61FB603B69802252019446BF
:101210006344FA681A60C046C046C046BD4608B07E
:1012200080BDC04604C0014080B586B000AF786084
:101230000A00FB1C1A707B681800FFF70BFFFB1CF1
:101240001B78002B0FD07B689B00114A94466344A7
:101250007B6140233B617B69802292019446634419
:101260003A691A600FE07B689B00094A9446634420
:10127000FB604023BB60FB68C0229201944663443C
:10128000BA681A60C046C046BD4606B080BDC046BA
:1012900004C0014080B582B000AF78607B68002157
:1012A0001800FFF72CFF7B6800211800FFF7F2FE03
:1012B0007B6805211800FFF73FFFC046BD4602B01E
:1012C00080BD00000FB480B582B000AF0B4B18009A
:1012D00005F079F93B69002B0CD01423FB187B60D7
:1012E0007A683B691100180005F084F9044B180076
:1012F00005F069F9012004F00FFFC0465C7500108D
:101300006C75001080B586B000AF0B237B607B68E6
:101310000F4A944663449B007B61EFF3108372B6DF
:101320003B613B69FB607B69BB6000E0C046BB681A
:101330001B685A425341DBB2002BF7D1BFF35F8FDA
:10134000C046C046C046FB681800BD4606B080BD1A
:101350004000003480B588B000AF78600B23FB609C
:10136000FB680E4A944663449B00FB617B68BB614B
:10137000FB697B61BFF35F8FC046C0467B6900227B
:101380001A60C046BB693B613B6983F31088C04665
:10139000C046C046BD4608B080BDC04640000034CF
:1013A00080B582B000AF786039603B68DB087A684E
:1013B000D3181B7819003B680722134001229A407A
:1013C00013000B405A1E9341DBB21800BD4602B019
:1013D00080BD80B586B000AFF860B9607A60FFF775
:1013E00091FF03007B61BA68FB6811001800FFF7EA
:1013F000D7FF031E05D0BA687B6811001800FFF7FD
:1014000061FFBB68DB08FA68D3181978BB6807224C
:10141000134001229A401300DAB2BB68DB08F86877
:10142000C3180A43D2B21A707B691800FFF792FF03
:10143000C046BD4606B080BD80B582B000AF094B46
:101440001B785A1CD1B2074A11707B60054B1B7880
:10145000172B02D9034B10221A707B681800BD4667
:1014600002B080BDDE0D002080B584B000AF002347
:10147000FB6012E0FB687B607B680C4A9446634427
:101480009B00BB60BFF35F8FC046C046BB680022B5
:101490001A60C046FB680133FB60FB681F2BE9D96B
:1014A000C046C046BD4604B080BDC04640000034C2
:1014B00080B582B000AF7860C046BD4602B080BD46
:1014C00080B500AF024B9B681800BD4680BDC0468A
:1014D00000ED00E080B582B000AF78600A00FB1C30
:1014E0001A707B681800FFF7E3FF7B6858097B6878
:1014F0001F22134001229A401100FB1C1B781A0086
:1015000000F022F8C046BD4602B080BD80B584B070
:1015100000AFF860B960FB1D1A70FB1D1B78002B33
:1015200008D00849C0235B00BA68CA50054BBA68A6
:101530001A6003E003498022BB688B50C046BD4659
:1015400004B080BD00E100E080B584B000AFF86079
:10155000B960FB1D1A70FB1D1A78B968FB6818008A
:10156000FFF7D4FFC046BD4604B080BD80B58AB049
:1015700000AFF860B9607A60FFF7A2FF0200FB6875
:1015800010339B00D318BA681A60BFF35F8FC04650
:1015900009237B617B690E4A944663449B007B620E
:1015A0007B683B627B6AFB61BFF35F8FC046C046CE
:1015B000FB6900221A60C0463B6ABB61BB6983F3CA
:1015C0001088C046C046C046BD460AB080BDC04671
:1015D0004000003480B582B000AF78607B681800AE
:1015E000FFF766FFFFF76CFF02007B6810339B007C
:1015F000D3181B681800BD4602B080BD80B58AB004
:1016000000AF786039607B681800FFF751FF09234D
:10161000BB60BB681E4A944663449B007B627B6A46
:10162000BB61EFF3108372B67B617B693B61BB6981
:10163000FB6000E0C046FB681B685A425341DBB2C6
:10164000002BF7D1BFF35F8FC046C046C0463B6951
:101650003B627B681800FFF7BDFF0300FB61FA697E
:101660000C4B9A4209D0FA693B689A4205D00A4B62
:101670000A4A0B48ED2104F05FFD3A6A39687B683D
:101680001800FFF773FFC046BD460AB080BDC046D4
:1016900040000034C101001070750010B4770010D4
:1016A000A875001080B500AF014B1800BD4680BD85
:1016B00000E400E080B584B000AF0C4B7B60FFF726
:1016C000F1FF0300FB600023BB6007E0FB681A1D0D
:1016D000FA607A681A60BB680133BB60BB68072B8D
:1016E000F4D9C046C046BD4604B080BD808080802D
:1016F00080B584B000AF786039603B68FB60FB6800
:10170000054A944663449B001A007B681A60C046F1
:10171000BD4604B080BDC0464000003480B584B0F2
:1017200000AF164BFB6020E0FB681B68002B13D05A
:10173000FB681B68012B05D0114B124A12481A2175
:1017400004F0FAFCFB687B607B68180000F037F857
:101750007B680833FB6008E0FB68BB60BB6818006F
:1017600000F016F8BB680833FB60FA68074B9A4232
:10177000DAD3C046C046BD4604B080BD280E002066
:10178000D077001070780010F0770010300E002035
:1017900090B583B000AF78607C68FFF74DFE030022
:1017A00019002000FFF7A4FF7B68FF221A71BFF326
:1017B0005F8FC046C046C046BD4603B090BD90B5E1
:1017C00083B000AF78607C68FFF736FE0300190035
:1017D0002000FFF78DFF7B68FF221A717B680022D3
:1017E0005A71BFF35F8FC046C046C046BD4603B0C6
:1017F00090BD80B582B000AF386079603A687B6890
:1018000010001900BD4602B080BD80B584B000AFA5
:10181000F8603A607B60F9683A687B680A604B6000
:10182000C046BD4604B080BD80B582B000AF7860D0
:10183000C046BD4602B080BD80B582B000AF7860C2
:101840007B689B6A1800BD4602B080BDB0B588B009
:1018500000AFF8603A607B603A687B68100019005E
:10186000FFF7C7FF02000B00BA61FB61FB691C00B8
:1018700000231D0023007B61FB685B6A3B613A69C2
:101880007B699A420AD3FB689A6ABB699A4203D27F
:101890003A697B699A4201D0012300E000231A1CB7
:1018A00001231340DBB21800BD4608B0B0BD0000F4
:1018B00080B582B000AF386079603A687B680449CF
:1018C0000800FFF7C3FF03001800BD4602B080BD4B
:1018D0000040054080B582B000AF786039603B6859
:1018E0001800FFF7A1FF3B681800BD4602B080BD9D
:1018F00080B582B000AF786000231800BD4602B00A
:1019000080BD000080B582B000AF7860024B180047
:10191000BD4602B080BDC0460040054080B582B0E3
:1019200000AF01F099F802000B0039000800FFF742
:101930006CFF3A687B6810001900BD4602B080BD9C
:10194000B0B584B000AFB860F9603A607B603A68C7
:101950007B6810001900FFF74CFF04000D00BA6807
:10196000FB6810001900FFF744FF02000B00A41AE7
:101970009D4122002B0010001900BD4604B0B0BDEF
:1019800080B588B004AFB860F9607A603B6000F061
:10199000A7F9BA68FB6818217918097802913968A3
:1019A00001917968009100F02BFD03001800BD46FD
:1019B00004B080BD80B582B000AF786000F090F9CF
:1019C00002007B681900100000F01EFE03001800E2
:1019D000BD4602B080BD000080B500AF034B1B695F
:1019E0005A1E9341DBB21800BD4680BDE00D0020B9
:1019F00080B584B000AF786039607B683C331A00F2
:101A000001213B6899400B00FA60BB60FB688022B3
:101A1000920194466344BA681A60C046C046BD4607
:101A200004B080BD80B584B000AF786039607B6859
:101A30003C331A0001213B6899400B00FA60BB60FF
:101A4000FB68C022920194466344BA681A60C0469B
:101A5000C046BD4604B080BD80B582B000AF78609E
:101A6000396001223B689A407B685A63C046BD4694
:101A700002B080BD80B586B000AF7860EFF305831B
:101A8000FB60FB68103B7B617B699B081800FFF7DC
:101A900039FF03003B617B6903221A407B681A60AF
:101AA0003B691800BD4606B080BD80B588B000AF68
:101AB000F860B9603A607B60FB681800FFF7BCFE15
:101AC0000300FB613A68FB69D31ABB61FB68BA6823
:101AD00004329200D258FB69D31A7B61BA697B69E0
:101AE0009A4207D3FB681B6A0121BA6891400A0039
:101AF000134005D13968FB68BA6804329200D150AE
:101B0000C046BD4608B080BDB0B58AB000AFF86031
:101B1000B9603A607B60FB68180000F003FF0200C8
:101B20000B003A627B62386879683A6A7B6A801A8D
:101B3000994102000B00BA61FB61FB68BA6804328C
:101B40009200D2583B6AD31A7B617B691C00002348
:101B50001D0001231A1CFB69AB4205DBFB69AB428C
:101B600004D1BB69A34201D200231A1CD3B21800CE
:101B7000BD460AB0B0BD80B582B000AF78607B686A
:101B8000180000F0CFFE02000B0010001900BD4647
:101B900002B080BD80B588B000AFF860B9607A60EF
:101BA000BA68FB6811001800FFF794FE0300FB61A0
:101BB0000122BB689A40FB681A627A68FB691100CF
:101BC0001800FFF71BFDFB6901211800FFF782FCDD
:101BD000FB6838331A000121BB6899400B00BA61D9
:101BE0007B61BB6980229201944663447A691A60E2
:101BF000C046C046BD4608B080BD80B582B000AFCB
:101C0000786039603A687B681100180000F06CFE5B
:101C1000C046BD4602B080BD80B582B000AF7860DE
:101C20007B681800FFF764FE03001800BD4602B091
:101C300080BD000080B500AF014B1800BD4680BDDF
:101C40000040054080B582B000AF78607B681B140F
:101C50001BB21800BD4602B080BD80B582B000AF97
:101C600078607B689BB21800BD4602B080BD80B52D
:101C700082B000AF78600A00BB1C1A807B681A042F
:101C8000BB1C1B8813431800BD4602B080BD00007A
:101C900080B582B000AFFFF79FFE03001A0001235A
:101CA0005340DBB2002B0ED000F0EAFD03007B6056
:101CB0007B6803211800FFF7A0FF7968064810230E
:101CC000032200F035FB054B0A211800FFF710FD39
:101CD000C046BD4602B080BDE00D0020E4140020E7
:101CE00080B500AFFFF778FE031E05D1044B054A0F
:101CF0000548652104F020FA044B1800BD4680BD5C
:101D0000A8780010B8790010CC780010E00D002001
:101D1000B0B5AEB000AF3B1D1800FFF7ABFE03003F
:101D20009022B9180B60BB181B681800FFF774FFEE
:101D300003008C217A1813607A68D54B79180968EA
:101D400089008A189200D3588822B9180B60BB18F2
:101D50001B681B781A007B689A4205D0CD4BCE4A8F
:101D6000CE48922104F0E8F97A689023FB181B68AA
:101D700011001800FFF756FE7A6890257B191B6842
:101D800011001800FFF768FE86217B1888203A189A
:101D9000126812891A800A00BB1800215B5E002BB2
:101DA00000DA5FE13B181B685969BB1800229A5E94
:101DB00013005B009B18DB00CB1880243A191360DA
:101DC0003B191B689A68DB68BA67FB677B191B685D
:101DD0001800FFF7D0FE02000B0010001900BA6FC8
:101DE000FB6F801A994102000B00002B00DA39E1E9
:101DF000FB6F002B3CDB3B191B681A69A84B9A420E
:101E000015D13B191B685B693B673B6F1B693A6FD8
:101E100010009847031E03D03B6F1A685B6801E00F
:101E200000220023B02179180A604B6026E0882345
:101E3000FB181B6808229B5E1A0080243B191B6854
:101E40005B889BB219001000FFF711FF03007B674E
:101E50003B191B681A693B191B6859697B6F18008D
:101E6000904702000B00B02179180A604B6005E032
:101E700000220023B02179180A604B60B0243B197E
:101E80001B68B4217A181268134300D19FE07B18B5
:101E90001B68002B0DDAB86FF96F3B191A685B6885
:101EA000801A994102000B00A82179180A604B6042
:101EB00013E09023FB181B681800FFF75CFE02007C
:101EC0000B0010001900B023FB181A685B68121889
:101ED0004B41A82179180A604B6080243B1919688E
:101EE000A8203B181A685B688A60CB603B191B68A6
:101EF00000229B5E002B00DAB4E088257B191B686A
:101F00005A693B191B6800215B5E19000B005B00DE
:101F10005B18DB00D3189A68DB68391808684968D1
:101F2000801A994102000B00002B00DA9AE03B195D
:101F30001B6800229A5E7B191B681A817B191B683B
:101F40000833A422BA18136010E08823FB181B681A
:101F50005A69A4203B181B6800215B5E19000B0026
:101F60005B005B18DB00D3183A181360A4217B18C0
:101F70001B6800229B5E002B19DB8823FB181B6863
:101F80005A697B181B6800215B5E19000B005B001F
:101F90005B18DB00D3189A68DB68A82179180868F9
:101FA0004968801A994102000B00002BCDDAA42168
:101FB0007B181B6800229A5E8023FB181B681A801E
:101FC0007B181B688622BA1812881A804AE0802380
:101FD000FB181B6800229A5E88217B181B681A81F7
:101FE0007B181B681B697B63EFF3108372B63B633E
:101FF0003B6BFB627B6BBB6200E0C046BB6A1B684D
:102000005A425341DBB2002BF7D1BFF35F8FC0467A
:10201000C046C046FB6AFB6688217B181B6802220B
:102020009A5E8023FB181B681A807B181B68862227
:10203000BA1812885A807B181B681B697B64FB6E78
:102040003B647B6CFB63BFF35F8FC046C046FB6B9A
:1020500000221A60C0463B6CBB63BB6B83F31088E5
:10206000C046C0468822BB181B689B881BB2002B49
:1020700000DAAFE0BB181B681B697B61EFF31083CC
:1020800072B63B613B69FB607B69BB600BE0C0469D
:10209000D0120020F4780010D0790010CC78001015
:1020A000111D0010C046BB681B685A425341DBB289
:1020B000002BF7D1BFF35F8FC046C046C046FB6818
:1020C000BB66A223FB1888217A18126892881A80AE
:1020D0007B181B68012252429A807B181B681B697F
:1020E0007B62BB6E3B627B6AFB61BFF35F8FC04666
:1020F000C046FB6900221A60C0463B6ABB61BB69EF
:1021000083F31088C046C0465EE088203B181B68F9
:102110005969A223FB1800229A5E13005B009B18EA
:10212000DB00CB187B667B6E9A68DB68BA65FB6563
:102130003B181B6808339C22BA18136010E08823F0
:10214000FB181B685A699C203B181B6800215B5ECA
:1021500019000B005B005B18DB00D3183A18136002
:102160009C217B181B6800229B5E002B17DB8823B9
:10217000FB181B685A697B181B6800215B5E1900FD
:102180000B005B005B18DB00D3189A68DB68B86D46
:10219000F96D801A994102000B00002BCFDA56210D
:1021A0007B189C203A18126812881A803B181B680A
:1021B000A2203A1812881A803B187A6E12881A8068
:1021C0007B6E7A1812881A80A223FB1800229B5E6D
:1021D000002B9ADA8822BB181B689B79DBB2002B94
:1021E0005ED01100BB181B6800229A71C0460A001D
:1021F000BB181B680833982179180B609623FB18CD
:10220000BA18126812891A8044E088203B181B68AB
:10221000596996243B1900229A5E13005B009B18B3
:10222000DB00CB183B654E23FB183A6D12881A80F1
:102230003B6D5B889BB21BB2002B21DA396D01220A
:102240005242D3178A60CB603B181B6808229B5E02
:102250003A190021525E9A4216D03B6D00229A5ED6
:102260009823FB181B681A803B181B6808229A5E8B
:102270003B6D1A803B181B683A1912881A8103E0DB
:102280003B6D9822BA1813609623FB184E22BA1899
:1022900012881A809623FB1800229B5E0133B4D16A
:1022A00086217B1888203A18126812891A800A0041
:1022B000BB1800215B5E002B33DB3B181B685969A0
:1022C000BB1800229A5E13005B009B18DB00CB1842
:1022D000BB64BB6C9A68DB68BA67FB67BB6F013392
:1022E00002D1FB6F013307D07968BA6FFB6F902082
:1022F00038180068FFF7D9FB9023FB181B681800FB
:10230000FFF739FC02000B0010001900BA6FFB6FD9
:10231000121A8B41002B05DC00D02DE5002A01D1DB
:102320002AE5C04640BFC046C046BD462EB0B0BD3F
:1023300080B586B000AFF860B9607A603B60FB683A
:10234000BA68DA60FFF778F803003B613B69294A15
:10235000944663449B001A00FB681A617B68DAB2FA
:10236000FB681A703B689AB2FB685A81D0231B063F
:102370001B68DAB2FB685A70FB68012252421A816C
:10238000FB6808229A5EFB689A803B689BB2013B1F
:102390009BB21AB2FB685A8000237B6110E07B6914
:1023A0009BB2013B98B2FB6859697A6913005B00E4
:1023B0009B18DB00CB1802B21A807B6901337B616A
:1023C0007A693B689A42EAD3BB681800FFF724FC9D
:1023D0000200094B91007A688A189200F968D1507E
:1023E000064A7968BB681800FFF7D4FBC046BD46B3
:1023F00006B080BD40000034D0120020111D001036
:1024000080B588B002AFF8603A607B602823FB1883
:102410001B7801225340DBB2002B11D0FFF77EFA6C
:1024200002000B003A617B613A687B683869796920
:10243000FFF786FA02000B00002B01DA002309E007
:102440003A687B68F868796A0191396A009100F00E
:1024500005F803001800BD4606B080BD80B59AB0EF
:1024600000AFF8603A607B60FB681B693B65EFF387
:10247000108372B6FB64FB6CBB643B6D7B6400E055
:10248000C0467B6C1B685A425341DBB2002BF7D12C
:10249000BFF35F8FC046C046C046BB6C3B665E2044
:1024A0003B18FA6852881A80FB6859693B18002269
:1024B0009A5E13005B009B18DB00CB18BB653B18D2
:1024C00000229B5E002B04DBBB6D00229A5EFB6842
:1024D0005A80FB681B693B643B6EFB633B6CBB63D0
:1024E000BFF35F8FC046C046BB6B00221A60C04678
:1024F000FB6B7B637B6B83F31088C046C0465E2317
:10250000FB1800229B5E002B02DA01235B4276E07F
:10251000BB6D3A6F1A61BB6D7A6F5A613A687B681E
:1025200010001900FFF765F902000B00B96D8A6011
:10253000CB60BB6D5B889BB201339AB266217B187E
:102540005204520C1A807B181B88002B02D17B1876
:1025500001221A80BB6D66217A1812885A805E2388
:10256000FB1800229A5E7B181B8819001000FFF7E9
:102570007EFB03007B65FB681B693B62EFF3108306
:1025800072B6FB61FB69BB613B6A7B6100E0C046E0
:102590007B691B685A425341DBB2002BF7D1BFF372
:1025A0005F8FC046C046C046BB693B66FB689B88E0
:1025B0001AB2BB6D1A80FB685E22BA1812889A8024
:1025C000FB681B693B633B6EFB623B6BBB62BFF30B
:1025D0005F8FC046C046BB6A00221A60C046FB6AD5
:1025E0007B627B6A83F31088C046C046FB68DA686A
:1025F000FB681B7819001000FFF7FAF97B6D1800D3
:10260000BD461AB080BD0000B0B590B000AF786094
:1026100039603C257C193B681800FFF713FB030069
:1026200023807B1900229B5E7A685289934201DBEA
:10263000002371E03A23FC183B681800FFF70DFBFC
:10264000030023803F23FB1800221A707B6859691E
:102650003C23FB1800229A5E13005B009B18DB00F2
:10266000CB187B637B681B69BB62EFF3108372B688
:102670007B627B6A3B62BB6AFB6100E0C046FB6930
:102680001B685A425341DBB2002BF7D1BFF35F8F77
:10269000C046C046C0463B6A3B637B6B5B889BB2CF
:1026A000FB623A23FB181B88FA6A9A420ED1FB6A36
:1026B0009BB21B4A13439AB27B6B5A80C0467B681D
:1026C00001229A713F23FB1801221A707B681B6953
:1026D000BB613B6B7B61BB693B61BFF35F8FC046F6
:1026E000C0463B6900221A60C0467B69FB60FB68FC
:1026F00083F31088C046C0463F23FB181B78002B8D
:1027000007D07B68DA687B681B7819001000FFF738
:102710006FF93F23FB181B781800BD4610B0B0BD01
:102720000080FFFF80B58CB000AF786039601D4B32
:102730001B68BB61EFF3108372B67B617B693B6101
:10274000BB69FB6000E0C046FB681B685A4253410E
:10275000DBB2002BF7D1BFF35F8FC046C046C04647
:102760003B69FB620F4B1B68BB62FB6A7B62BB6A07
:102770003B62BFF35F8FC046C0463B6A00221A60CF
:10278000C0467B6AFB61FB6983F31088C046C04684
:1027900040BFC0460022002310001900BD460CB007
:1027A00080BDC046E4140020B0B586B002AF3860EA
:1027B0007960EFF30583BB60BB68002B08D0C0468F
:1027C0003A687B6810001900FFF772F8030050E0C8
:1027D000FFF786FA0300DC68FFF782FA03001B7834
:1027E0001D003A687B6810001900FFF702F802002C
:1027F0000B0029002000FFF787F9031E09D020BF36
:10280000C0463A687B6810001900FFF751F80300D2
:102810002FE01A4A38687968002300930023FFF7F5
:10282000AFF80300FB60FB68002B08DCC0463A6889
:102830007B6810001900FFF73BF8030019E03A68C5
:102840007B6810001900FFF733F803001A0001231A
:102850005340DBB2002B01D020BFC046FB681800FC
:10286000FFF7A8F83A687B6810001900FFF720F816
:1028700003001800BD4604B0B0BDC04625270010B7
:1028800080B500AFFFF7D6F903001800BD4680BD44
:1028900080B582B000AF386079603A687B6810001C
:1028A0001900BD4602B080BD80B584B000AFF860AD
:1028B0003A607B60F9683A687B680A604B60C046A2
:1028C000BD4604B080BD80B582B000AF7860C04620
:1028D000BD4602B080BD80B582B000AF78600023F5
:1028E0001800BD4602B080BD80B582B000AF7860F0
:1028F00039603B681800FFF7E6FF7B681800FFF7B8
:10290000EAFF0200054BD318054A39681800FEF7A4
:1029100060FDC046BD4602B080BDC04638120020F2
:10292000E8790010B0B58AB000AF78617969496A7A
:1029300079627969896A39627969496AF961786A7B
:10294000F969884202D0F9697962F2E7C046796A8A
:10295000B9600021F960B9680B0000210A00396AEA
:102960000C0000210D001100214339602B437B60D6
:102970003A687B6810001900BD460AB0B0BD80B54A
:102980008AB000AFF8603A607B60FB681800FFF720
:10299000C9FF02000B00BA61FB61B869F9693A68C6
:1029A0007B6812184B413A627B62FA697B6A9A42F1
:1029B00007D8FA697B6A9A4208D1BA693B6A9A4297
:1029C00004D901225242D3173A627B623A6A7B6A87
:1029D000102179180800FFF767FF3A697B69F968E9
:1029E000080000F004F8C046BD460AB080BDB0B58E
:1029F0008AB000AFF8603A607B603A687B6810008C
:102A00001900FFF745FF02000B00BA61FB61FB698B
:102A10001C0000231D0023007B61FB685B6A7B6256
:102A200003E0FB685B6A7B62C0467A6A7B699A4214
:102A3000F7D303E0FB685B6A7B62C0467A6A7B6916
:102A40009A4204D1FB689A6ABB699A42F2D3C046A3
:102A5000BD460AB0B0BD000080B500AF044B180001
:102A6000FFF760FF02000B0010001900BD4680BD9B
:102A70000040054080B582B000AF386079603A68A8
:102A80007B6804490800FFF77AFFC046BD4602B0E4
:102A900080BDC0460040054080B586B000AF78607C
:102AA00001227B689A401300094A7A613B617B6985
:102AB000FB603B69BB60FB688022920194466344E3
:102AC000BA681A60C046C046C046BD4606B080BD62
:102AD00000C0004080B588B000AF786001227B68FC
:102AE0009A4013000E4AFA610E4ABA617B61FB6993
:102AF0003B617B69FB603B69C02292019446634461
:102B0000FA681A60C04600E0C046BB691B68DB4338
:102B10007A691340F8D1C046C046BD4608B080BDB2
:102B200000C0004008C0004080B582B000AF7860AF
:102B30007B68054A944663445A425341DBB218000D
:102B4000BD4602B080BDC0460080FCBF80B582B0EB
:102B500000AF78607B681800FFF7E6FF7B6818001D
:102B6000BD4602B080BD80B582B000AF78607B68A2
:102B70001800FFF7D9FF031E01D0172300E016232A
:102B80001800BD4602B080BD80B582B000AF78604D
:102B9000062000F0BBFA03001800BD4602B080BD5D
:102BA00080B582B000AF78607B681800FFF7DBFF6C
:102BB00003001800FFF770FFC046BD4602B080BD9D
:102BC00080B582B000AF78607B681800FFF7CBFF5C
:102BD00003001800FFF77EFFC046BD4602B080BD6F
:102BE00080B58CB000AF786039607B681800FFF763
:102BF000CBFF031E01D100235DE07B681800FFF7C7
:102C0000CFFF7B681800FFF7DBFF7B68002118000F
:102C100000F03AF93A687B681100180000F0DEF81D
:102C20000300FB620823BB6201237B6200233B623B
:102C30007B681800FFF78AFF03002C331A00BB6A79
:102C4000053B59017B6A013BDB0019433B6A002BC2
:102C500001D0022300E0002319433B6A012B01D17C
:102C6000042300E000230B4310210B43FA61BB61F6
:102C70007E237B61FB691A68BB6953407A69134004
:102C8000FA693A61FB603B698022520194466344D1
:102C9000FA681A60C046C0467B681800FFF756FF06
:102CA0000300074A1A637B681800FFF74FFF030011
:102CB00003229A64FB6A1800BD460CB080BDC04672
:102CC00001030000B0B58AB000AF78607B681800DF
:102CD000FFF73CFF03001B6B7B627B6A0122134002
:102CE0003FD07B681800FFF731FF03003033FB60F3
:102CF0001E4BBB60FB68C022920194466344BA68D5
:102D00001A60C0467B681800FFF720FF03005B6A6B
:102D10003B627B681800FFF719FF03009B6AFB61A9
:102D20003B6A9B01FA69D318BB61BB699B02BB611B
:102D30007B681800FFF728FF03000D49180000F01A
:102D4000B1FD03007B617969B86900F0ABFD030058
:102D50003B613B691C0000231D0020002900FFF798
:102D600089FE7B6A1800BD460AB0B0BD01030000B1
:102D70004E0E000080B58AB000AFF860B9607A608E
:102D8000FB681800FFF79EFF03007B62FB681800DA
:102D9000FFF7DCFE03002C333B62BB68FB617B6802
:102DA000BB613B6A1A68FB695340BA6913403A6ACF
:102DB0007A613B617B6980225201944663443A699F
:102DC0001A60C046C046FB681800FFF7BFFE03004C
:102DD0007A6A1A63C046BD460AB080BD80B586B027
:102DE00000AF786039607B681800FFF7CDFE030004
:102DF000DB003968180000F055FD03000133FB606B
:102E0000FB68DB097B617B69002B04D101237B61BB
:102E100000233B610DE07B69194A934204D9194BA9
:102E20007B6100233B6104E0FB685B083F221340A9
:102E30003B617B681800FFF789FE03007A695A62DC
:102E40007B681800FFF782FE03003A699A627B688C
:102E5000002200211800FFF78DFF7B681800FFF7A4
:102E600093FE030098007B699A013B69D31819000F
:102E700000F018FD03001800BD4606B080BDC04636
:102E8000FEFF0000FFFF000090B583B000AF786048
:102E90000A00FB1C1A70FB1C1B78002B01D00A24B3
:102EA00001E080235C007B681800FFF73DFE020014
:102EB000034B5200211CD152C046BD4603B090BD09
:102EC000EC14002080B582B000AF78607B68033BD3
:102ED000FDD27B60C046BD4602B080BD80B582B0E9
:102EE00000AF0200FB1D1A70FB1D1B78052B03D0E1
:102EF000FB1D1B78042B01D1012300E000231A1CC9
:102F000001231340DBB21800BD4602B080BD0000B3
:102F100080B596B000AFB9607A603B600F217B1836
:102F2000021C1A707B181A7813005B009B189B0018
:102F3000584A944663447B657B6D5B683A6E9A425F
:102F400002D97B6D3A6E5A600F23FB181B7818006C
:102F5000FFF7C4FF031E16D0BB68012B13D17B6D96
:102F6000FB640323BB64FB6CC02292019446634460
:102F7000BA6C1A60C04600E0C0467B6D9B680122B7
:102F80001340F9D028E07B6D7B6480231B013B64F8
:102F90007B6CC0229201944663443A6C1A60C0462E
:102FA0000F217B181A783C4B9200D358002B13D07A
:102FB000394B58697B181A78374B9200D35819004F
:102FC00000F070FC030001333B653A6D13005B00B9
:102FD0009B181800FFF776FF7A6D7B685B01FA6338
:102FE000BB63E0237B63FB6B1A68BB6B53407A6B5C
:102FF0001340FA6B3A63FB623B6B802252019446AA
:103000006344FA6A1A60C046C0460F23FB181B7857
:103010001800FFF763FF031E21D07B6DBB62BB6806
:103020007B6203233B62BB6A1A687B6A53403A6A3D
:103030001340BA6AFA61BB61FB698022520194466F
:103040006344BA691A60C046C04600E0C0467B6D62
:103050009B680121BA6891400A001340F6D07B6D4D
:103060007B6180231B013B617B6980229201944636
:1030700063443A691A60C0467B6D3A6E5A600F230A
:10308000FB181A78044B92003968D150C046BD46EF
:1030900016B080BD008000403C120020F0B587B023
:1030A00002AFB9607A603B600F26BB19021C1A7030
:1030B000B96A386800F0F6FB03001D00BB6A1B020A
:1030C0007C68B968BA19107800932B002200FFF7CA
:1030D0001FFFC046BD4605B0F0BDB0B586B002AF1B
:1030E000B9607A603B600F257B19021C1A703C683E
:1030F0007A68B9687B19187880235B0000932300F5
:10310000FFF706FFC046BD4604B0B0BD80B582B033
:1031100000AF0200FB1D1A70FB1D1A78034B9200D2
:10312000D3581800BD4602B080BDC0463C120020F6
:1031300080B582B000AF02003960FB1D1A70FB1D24
:103140001A78044B92003968D150C046BD4602B08F
:1031500080BDC0463C12002080B58CB000AF7860C6
:1031600001227B689A401300184ABA617B61BB69EF
:103170003B617B69FB603B6980229201944663441A
:10318000FA681A60C046C04601227B689A40130064
:103190000E4AFA620E4ABA627B62FB6A3B627B6A43
:1031A000FB613B6AC022920194466344FA691A604B
:1031B000C04600E0C046BB6A1B68DB437A6A134026
:1031C000F8D1C046C046BD460CB080BD00C000402E
:1031D00008C0004080B58CB000AFF860B9607A607C
:1031E0003B60B9684E4800F05DFB0300FB627B6802
:1031F0004C4A934203D97B684B4A934205D94B4BC7
:103200004B4A4C48112102F097FFF96A786800F0A8
:1032100049FB0300BB62BB6A0F2B04D9BA6AA02327
:103220005B009A4205D9444B414A4248192102F0B9
:1032300083FF3B68002B08D03B68072B05D8BB6B8E
:10324000002B02D0BB6B072B05D93C4B384A3948C1
:103250001C2102F071FF7B681B09FA6A9A4205D9AA
:10326000374B334A3348232102F066FF3B681A0488
:10327000BB6B1B0313437B62FB681B68002B15DAD7
:10328000FB681B683F221340BA689A420ED1FB6864
:103290009B681B051B0DBA6A9A4207D1FB68DA6866
:1032A000EE23DB0213407A6A9A4234D0FB68254A47
:1032B000934201D10D2300E00C231800FFF74CFFCF
:1032C000FB68BA681A60FB68BA6A9A6021233B629D
:1032D000FB680433FB613B6ABB61FB69C02292015E
:1032E00094466344BA691A60C04600E0C046FB6871
:1032F0001B68002BFADAFB687A6ADA60FB68043331
:103300007B6108233B617B69C02292019446634440
:103310003A691A6000E0C046BD460CB080BDC046A8
:10332000001BB7007F17B42C00105E5F747A00108A
:10333000787B0010C47A0010F47A0010107B001023
:103340005C7B001000C0024080B582B000AF02007C
:103350003960FB1D1A70054B3A68802189000A43C9
:10336000DA62C046BD4602B080BDC046008005405E
:1033700080B588B000AF78607B68FB611A217B184C
:1033800018221A807B181B881B887B6112217B18EE
:1033900014221A807B181B881B88FB60F969FA6865
:1033A0007B691000984703001800BD4608B080BD37
:1033B00080B588B000AF78607B68FB611A217B180C
:1033C00018221A807B181B881B887B6112217B18AE
:1033D00016221A807B181B881B88FB60F969FA6823
:1033E0007B691000984703001800BD4608B080BDF7
:1033F00080B584B000AF786039600F23FB180122DC
:103400001A700023BB601CE0BB689B007A68D3186D
:103410001B681800FFF7ACFF0100BB689B007A68CF
:10342000D3180A001A60BB689B007A68D3181B681F
:10343000002B03D10F23FB1800221A70BB68013345
:10344000BB60BA683B689A42DED30F23FB181B7837
:103450001800BD4604B080BD80B582B000AF0F4BF0
:10346000AA2212011A600D4B8D225200DA600B4B1A
:103470007B600B4B3B607B688022920194466344E7
:103480003A681A60C04600E0C046044B5B68002BF7
:10349000FADAC046C046BD4602B080BD00400240D8
:1034A00000B0FA0080B584B000AF78607B68FB6044
:1034B00007E0FB681B68BB60BB689847FB68043388
:1034C000FB60FA68034B9A42F3D3C046C046BD4640
:1034D00004B080BD0C75001080B500AF034B180020
:1034E000FFF7E0FFC046BD4680BDC046D074001067
:1034F00080B500AFC046BD4680BD000080B58CB031
:1035000000AF1B4B7B611B4B3B617B69FB603B69E5
:10351000BB60FB687B60BB68802292019446634479
:103520007A681A60C046C046C046134BFB62114B16
:10353000BB62124B7B62FB6A3B62BB6AFB613B6A0C
:10354000BB61FB69C022920194466344BA691A6068
:10355000C04600E0C0467B6A1B68DB433A6A134002
:10356000F8D1C046C046C046BD460CB080BDC0467E
:10357000BFCDFBFE00C00040FE7F3C0008C0004005
:1035800080B582B000AF0A4BDB6C002B0CD1094B2D
:103590007B608023DB023B607B6880229201944643
:1035A00063443A681A60C046C046BD4602B080BD5A
:1035B000000011504C00115080B586B000AF114B87
:1035C0007B61114B3B61114BFB607B69BB603B69CD
:1035D0007B60BB683B607B68C02292019446634479
:1035E0003A681A60C04600E0C046FB681B68DB43CF
:1035F000BA681340F8D1C046C046C046BD4606B0C2
:1036000080BDC046FFFFFF0100C0004008C0004071
:1036100080B582B000AF074B7B6040237A68936728
:103620007A6853677A6813677A68D366C046BD467E
:1036300002B080BD00F0014080B500AFFDF714FF7F
:10364000C046BD4680BD000080B582B000AF134AC1
:10365000134BD31A9B103B603B68302B00D93023AF
:103660009B0010490E4A080011001A0001F0E6F80C
:103670003B687B6007E00C490A4B7A689200D150A6
:103680007B6801337B607B682F2BF4D9074B054A9D
:103690009A60C046BD4602B080BDC046C001001061
:1036A0000001001000000020C101001000ED00E04A
:1036B00080B500AF00231800BD4680BD80B582B044
:1036C00000AF0420FFF722FD03000D49180000F0B1
:1036D000E9F803003B6000237B6009E07B68DBB214
:1036E0003A6811001800FFF72FFE7B6801337B60FA
:1036F0007B68002BF2DDC046C046BD4602B080BDEF
:1037000040420F0080B588B002AFFFF7D1FF031E23
:103710001AD000237B6109E07B69DBB23E4A1100CD
:103720001800FFF705FD7B6901337B617B69092B7D
:10373000F2D93A4B19000420FFF7FAFC384B190074
:103740000920FFF7F5FC60E0364B00229A67FFF78F
:1037500083FE354B3B610123FB603B69C022920134
:1037600094466344FA681A60C04600E0C0462D4B98
:103770005B6C012BFAD12D4BBB6003237B60BB68D4
:10378000C0229201944663447A681A60C04600E001
:10379000C046244B9B6B012BFAD1254A25480223B6
:1037A000009306230121FFF715FD234A2348052333
:1037B000009305230121FFF70DFD184B0022022184
:1037C0000420FFF78AFC1E4B002201210520FFF791
:1037D00084FC114B002200210720FFF77EFC0E4BDA
:1037E000002200210820FFF778FC0B4A8023DB0031
:1037F00000931300002200210920FFF74FFC104B1B
:10380000002200210620FFF768FCFFF757FFC046A3
:10381000BD4606B080BDC046006CDC02001BB70090
:103820001BB70000008000403C800040308000401A
:10383000002F685900800240008C864700C002407B
:103840004059730701480421014B1847000E00201E
:10385000F1330010124A936F9B0815D29066D1661F
:10386000002905D0FFE7FFE7FFE7516F106F7047B2
:1038700004B580210906C2175140002800D0C84372
:1038800003F016FE002104BDF0B5146E556E576F9F
:10389000166FFFF7E3FF1466556657671667F0BDAE
:1038A000000000D0114A936F9B0813D21066516636
:1038B000002905D0FFE7FFE7FFE7516F106F704762
:1038C00004B5002801D00020C04303F0F1FD002121
:1038D00004BDC046F0B5146E556E576F166FFFF7F6
:1038E000E5FF1466556657671667F0BD000000D007
:1038F00094464A4A926F9208624601D228E0C04636
:10390000F0B5464E346E756E776F366F00F020F866
:103910009446424A14665566576716676246F0BD7C
:1039200094463E4A926F9208624601D254E0C046E5
:10393000F0B53A4E346E756E776F366F00F04CF816
:103940009446364A14665566576716676246F0BD58
:10395000002B24DB11D000293EDA00B5C9434042D8
:1039600000D1013100F038F8C943404200D10131A3
:10397000DB43524200D1013300BD002AEBD10028C5
:1039800001D1002905D00020C90FC90701D1C043CA
:10399000410800B503F084FD0022002300BD00B5FE
:1039A00000290ADBDB43524200D1013300F014F856
:1039B000C943404200D1013100BDC943404200D15A
:1039C0000131DB43524200D1013300F005F8DB4303
:1039D000524200D1013300BD002923D1002B18D160
:1039E000002A0CD0BC460D4F38667A6600210023B1
:1039F000FFE7FFE7FFE77A6F386F674670470028F9
:103A000001D00748010000B503F04AFD0022002361
:103A100000BD02000B00002000217047000000D014
:103A2000FFFFFFFF002B00D0BFE0130C28D1002ABE
:103A3000E7D080B4114F39667A66FFE7FFE730B40C
:103A4000040C7B6F396F1B0423433B667A66FFE7E8
:103A5000FFE7FFE7C04684B27B6F3D6F1B04234343
:103A60003B667A66FFE7FFE7C04600232C042D0C77
:103A70007A6F386F00196941B0BC7047000000D000
:103A8000F0B594460025140E01D112020835140F2A
:103A900001D112010435940F01D192000235D40FE7
:103AA00001D152000135D40B0134254F7C66254CE1
:103AB0003C660E0C93B2FFE7FFE7FFE73C6F6643FF
:103AC000360C7703BE467343DF0B5B04C01AB94163
:103AD000130C7343DB18C91ACE086643360CB64480
:103AE00093B273431F0F1B01C01AB941130C7343E8
:103AF0001F0B1B05C01AB941860D8F023E4366435A
:103B0000360C092D24DB520A7243801A7703460AC9
:103B10006643360C16235B1BDE40DF40BF1964464C
:103B20006643821B7046043506330100D940A84025
:103B3000C01900D30131A24206D20023F0BD00001B
:103B4000000000D0FFFFFFFF121B0130F3D3F1E7AD
:103B500009277F1BFE406446A2B27243801A00D23E
:103B60000139220C7243130C1204821A99410B0082
:103B70007046043513370100F940A840801900D37E
:103B80000131002B02D1A2420AD2F0BD013000D394
:103B90000131121BFAD2013BF8D1A24200D2F0BD92
:103BA000013000D30131121BF7E7F0B51C0C00D037
:103BB00080E00CB400251C0A04D11B02160E33430E
:103BC000120208351C0B04D11B01160F33431201DE
:103BD00004359C0B04D19B00960F334392000235B1
:103BE000DC0B02D192185B4101351C00971864412F
:103BF0000134464F7C66464C3C660E0CFFE7FFE7FF
:103C0000FFE7C0463C6F6643360C7703BE4697B26B
:103C10007743C01B00D20139C01B00D201399FB2CB
:103C20007743C91BC91B170C77437E04FF0B801B0E
:103C3000B941CE086643360C0C2D33DBB644120B6B
:103C40001F053A431B0B97B27743C01B00D20139C3
:103C50009FB27743C91B170C77433E043F0C801B70
:103C6000B941860D8F023E43664329277F1BFE40E4
:103C70000C3D7746AF40BF1930BCA2B2ABB2724325
:103C80007343801A9941220C7243130C1204801A58
:103C9000994102000B000137001BA941F9D2781E9F
:103CA0000021F0BD0C277F1BFE4077467F0BAF4005
:103CB000FF19E0E700245D1C07D0144F7D663966CC
:103CC000FFE7FFE7FFE7FFE73C6F95B29EB2654372
:103CD0006643401BB141150C1E0C65436643360418
:103CE0002F0C3E432D04401BB141994204D20200E7
:103CF0000B0020000021F0BD01D19042F7D3801AC3
:103D0000994101349942F2D3F6E70000000000D057
:103D1000FFFFFFFF48404140484018B41B4B5B6821
:103D2000FC46019308BD04DF4740001018B4174B50
:103D30001B68FC46019308BD00DF5140001094460B
:103D4000134A926F920809D2624618B40F4BDB688F
:103D5000FC46019308BD0CDF094300100C4AF0B586
:103D6000146E556E576F166F6246FFF7EEFF084AE6
:103D70001466556657671667F0BD18B4034B9B6809
:103D8000FC46019308BD08DFAD410010E0120020A1
:103D9000000000D0FFB550404240504059404B40D9
:103DA000594000E0FFB5154F4C00640D03D0BC42F4
:103DB00004D10C0314D80020090D09055C00640D22
:103DC00003D0BC4204D11C030AD800221B0D1B05E2
:103DD00001264B4009D44B4003D58B4200D182428F
:103DE000FFBD9942FCD19042FFBD0B43DB1803435A
:103DF0001343F5D0C9434918FFBD0000FF07000079
:103E000000B5FFF7CFFF804100BDC04600B5FFF70A
:103E1000C1FF01D9002000BD012000BD00B5FFF7A2
:103E2000B9FF804100BD012040054A00121804D8A6
:103E30005A00121801D80020704701207047000076
:103E40000021002805D17047C1174840401AFAD018
:103E5000C90713B5064B1B6898470CBC441CA2400D
:103E60001005120B0349091B09051943114310BD25
:103E7000E01300201F04000010B54C00620D8023E9
:103E8000D218DB00D21A5B057E2A10DD9E3A13DAC7
:103E9000CC170903490819435242D1406400013448
:103EA0001532202A05DAD0400843604310BD0020B7
:103EB00010BD0846604310BDC80FC018013810BDC2
:103EC00018B4044B5B6AFC46019308BD24DFB94477
:103ED00000100000E012002080B500AF13231B7813
:103EE0001800BD4680BD80B582B000AF0200FB1D4A
:103EF0001A70BB1D0A1C1A70FB1D1A78BB1D1B789B
:103F00001B0213431800BD4602B080BD80B584B0CB
:103F100000AFFFF7E1FF0300BB60BB68012B0DD1D1
:103F20000023FB6007E02D492D4BFA689200D15029
:103F3000FB680133FB60FB681F2BF4D9BB68012BC6
:103F40003BDD44215320FFF7CEFF03001800FFF7AD
:103F50002FFA03007B6046215320FFF7C4FF0300C4
:103F60001800FFF725FA03003B603B68023B1B7813
:103F70009B007F2B05DC1B4B1B4A1C48332102F0A6
:103F8000DBF87968164B8022180000F057FCBB68FC
:103F9000022B12D1164B1A88B5231B029A4209D163
:103FA000144B1B88144A934204D1144B1B88144AA7
:103FB000934202D00020FDF785F9BB68022B02DC9A
:103FC000064A074B9A640F4B1800FFF7D1F902001D
:103FD0000D4B1A60C046BD4604B080BD0D400010B8
:103FE000E0120020847B0010087C0010C87B0010C9
:103FF00054380000D8380000494600009C380000C2
:10400000594600004C330000E013002007B560461D
:10401000002800D100BE01880A0A0230DF2AFAD146
:10402000C9B2820804D3028840880004104300E02B
:104030000068024A5050039007BD0000E0120020C3
:104040000FB403BC0CBCF0B50124E407634000E0EE
:10405000F0B50C0DCF0F661E3605891B640503D322
:10406000C943404200D30131640D03D0661CF60AF7
:1040700007D0E41B00207F00791C89078912803C4F
:1040800024031D0DDF0F6E1E36059B1B6D0503D32C
:10409000DB43524200D301336D0D03D06E1CF60A90
:1040A00007D0ED1B00227F007B1C9B079B12803DED
:1040B0002D032F1B661B58D4A446202E46DA20372A
:1040C0001400BC401D00BD40F24033412A4380181B
:1040D0005941CB0F05D0C943C0430022644250412F
:1040E000514162464D0D28D10D0D07D100281FD03A
:1040F000241940414941013A0D0DF9D0640006D31D
:10410000013000D30131002C01D140084000013AB8
:104110000BD4941CE40A04D112051144DB071944A2
:10412000F0BDD907204B194300E0D9070020F0BDAE
:104130000029DDD1002CDBD1F0BD0132C6074008DB
:10414000CD0728434908002EE1D0D9E73C2E29DAD3
:10415000203E40371400BC4000D00124F2401443FC
:104160001A00BB401C43D317ACE7AC46202F08DA3B
:1041700020360400B4400D00B540F84039412843D2
:10418000A5E73C2F0CDA203F40360400B44000D0B5
:104190000124F84004430800B1400C43C117EAE78A
:1041A00010001900002494E70000F07FF0B50C0D1A
:1041B000661E3605891BE60A6405640D02D0651C7F
:1041C000ED0A04D0002001210905803C2403A44607
:1041D0001C0D671E3F05DB1BE70A6405640D02D05A
:1041E000651CED0A04D0002201231B05803C24033A
:1041F0007740644497B484B296B27443070C7E430C
:10420000150C6F4380B26843361802D301200004B6
:104210003F183004350C00197D41844688B29AB2AB
:1042200050430C0C62431F0C7C438EB27E439219A8
:1042300002D301263604A4191604170C3618674158
:1042400001BC81B29AB25143040C62431B0C5C4323
:1042500080B25843121802D301200004241810041D
:10426000130C401863412D185E410020474106BCE5
:1042700088B293B258430C0C6343120C544389B276
:1042800051435B1802D301210904641819041A0C64
:10429000091862416D1856410020474118BCF902C7
:1042A000720D1143F0026A0D1043ED020A0D03D1A5
:1042B0006D1940414941013B124E9B1B7600B342B0
:1042C0000ED26D0007D3013000267141664635439A
:1042D00001D1400840001B05C918E4072144F0BD86
:1042E0000BDA013306D1013004D101314F0D01D079
:1042F0004908F2E7E1070020F0BD01363105002052
:10430000EBE70000FF030000F0B51C0D671E3F0542
:10431000DB1BE70A6405640D02D0661CF60A04D0B4
:10432000002201231B05803C2403D0252D060026F6
:10433000F6432E661E096E66CE0FF619B446490086
:104340004F0D02D07E1CF60A03D000200021403F12
:104350003F033E1BB600B444013F7F05C91B49081B
:104360002E6F013676089C02950D25437543ED139B
:104370007543AD1301356D10F603761B0CB4CC02FA
:10438000450D2C43A2B2B3B25A43270C7B43350CE4
:104390006F43A4B26C431B1902D3012424043F19B8
:1043A0001C041D0CA4187D4124196D41009A91B282
:1043B000ACB26143170C7C432B0C5F4392B25A435F
:1043C000A41802D301221204BF182204230C52188D
:1043D0007B41019C6C431B19520ED9010A434401D5
:1043E000A01A81B2B2B2514303145A43360C73433C
:1043F00087B27743D617D21900277E4136049B191E
:104400001704160C7F185E417316ED18F301002691
:1044100080337541A90F06D16400690AE8055B0A7B
:10442000184309D22FE00422944480337541A90A2D
:10443000A8059B0A184326D3404149412404009A09
:10444000019B0D005543641B4343E41A95B286B2A9
:104450007543170C7E43030C5F4392B25A43B61860
:1044600002D301221204BF183204330C52197B41CB
:1044700052429C41002C02D400220130514140089C
:10448000CA071043490802B06246D7079210084B8A
:10449000D218084B9A4203D212058918C919F0BDE7
:1044A0000020002A01DC3900F0BD01331905F5E7D1
:1044B000FD030000FE070000002200B5203200F0DE
:1044C00004F8080000BD000000220B150AD410B546
:1044D000944600F031F81414013400DA0021CB17AF
:1044E000144C20470020002170476244343A0CD419
:1044F0000C2A07DA04009140904052422032D44006
:10450000214310BDD843D94310BD203207D40C46F7
:104510009440524220321141D040204310BD080047
:10452000C917203203D452422032104110BD180066
:10453000190010BDEB4400100A0DCC0F531E1B05D3
:10454000C91A520503D3C943404200D30131520D69
:1045500003D0531CDB0A07D0121B00206400611C2F
:1045600089078912803A1203014BD21A7047000062
:10457000FF03000051434343C9188C46110C83B21A
:104580004B4310B4040C614392B280B25043624377
:104590001C041B0C001910BC59411304120CC01848
:1045A0005141614470470000484041404840002369
:1045B0009C46114B5B68184700239C460E4B1B68BA
:1045C00018470E4A936F9B0804D200239C460A4B5F
:1045D000DB681847F0B5146E556E576F166FFFF70E
:1045E000F4FF064A1466556657671667F0BD002348
:1045F0009C46014B9B681847E4130020000000D044
:10460000491A002808D1084670470000C10FC907A1
:1046100000D54042002817D0F44603B40B4B1B686A
:10462000984706BC81409E384042803107D20B0635
:1046300007D04900490AC0051043084360470130CC
:10464000F8E7490A8902F5E770470000E013002007
:10465000034BDB6FFC4618477CDFFD470010000072
:10466000E413002080B500AF13231B781800BD466B
:1046700080BD80B582B000AF0200FB1D1A70BB1D6B
:104680000A1C1A70FB1D1A78BB1D1B781B021343F2
:104690001800BD4602B080BD80B584B000AFFFF702
:1046A000E1FF0300BB6046215320FFF7E2FF030058
:1046B0001800FEF77DFE03007B60BB68012B3ED136
:1046C00079682F4B5422180000F0B8F82D4B1B8846
:1046D0002D4A93421AD1A7239B011B882B4A934250
:1046E00014D12B4B1B882B4A93420FD12A4B1A888B
:1046F00094239B019A4209D1284B1B88284A934254
:1047000004D1284B1B68284A934203D0274B18003A
:10471000FCF7D8FD1523FB6007E02549184BFA6824
:104720009200D150FB680133FB60FB681F2BF4D96A
:104730001F4A134B1A62124B1A6A114BDA61BB689B
:10474000012B11DD7B68023B1B789B007F2B05DC76
:10475000184B194A1948422101F0EEFC7968084BC0
:104760008022180000F06AF8154B1800FEF700FED2
:104770000200144B1A60C046BD4604B080BDC0465E
:10478000E4130020EE290000C40F0000C20D000059
:10479000962B0000C0B50000182B0000CC2A0000AA
:1047A00010B50000FC2C000051ED87641C7C00104B
:1047B000C9470010207C0010947C0010547C00102D
:1047C0004C330000E013002007B56046002800D1FC
:1047D00000BE01880A0A0230DF2AFAD1C9B2820873
:1047E00004D3028840880004104300E00068024AB5
:1047F0005050039007BD0000E4130020C30FDB07F7
:1048000041000A0E07D0FF2A08D00909054A891875
:104810001943400770471900002070470249C91822
:10482000FAE70000000000380000F07F0148042192
:10483000014B1847100E0020F1330010014B5B684C
:1048400018470000100E002080B584B000AFB9609A
:104850007A603B600F217B18021C1A707A683B68F3
:104860009A4205D2BA687B68D3187A1812781A70FF
:10487000C046BD4604B080BD80B584B000AFB9600D
:104880007A603B600F23FB18021C1A70C046BD46BD
:1048900004B080BD80B584B000AFB9607A603B6081
:1048A0000F217B18021C1A7008007B181B78002B44
:1048B00007D0BB681A68BB6859683B181B7818009A
:1048C0009047C046BD4604B080BD80B584B000AFFF
:1048D000786039607B68FB6002E0FB680133FB6055
:1048E000FB681B78002B04D03B685A1E3A60002BF3
:1048F000F3D1FA687B68D31A1800BD4604B080BDB6
:1049000080B582B000AF0200FB1D1A70FB1D1B7842
:104910002F2B05D9FB1D1B78392B01D8012300E073
:1049200000231A1C01231340DBB21800BD4602B05D
:1049300080BD80B584B000AF78600023FB600EE0DE
:10494000FA6813009B009B185B0018007B681B68CB
:10495000591C7A6811601B78C318303BFB607B6878
:104960001B681B781800FFF7CBFF031EE8D1FB681C
:104970001800BD4604B080BD90B587B000AFF860A8
:10498000B9607A603B607B683B617B6B02221340BD
:1049900024D17B6B0122134020D1FB6A7B610AE0AA
:1049A0007A68531C7B603B68B968FC682020A0478C
:1049B0007B6901337B617A693B6B9A42F0D30DE0EE
:1049C000FB6A013BFB62BA6AFB6AD31818787A6803
:1049D000531C7B603B68B968FC68A047FB6A002BEE
:1049E000EED17B6B022213400ED007E07A68531C95
:1049F0007B603B68B968FC682020A0477A683B6907
:104A0000D31A3A6B9A42F1D87B681800BD4607B0BA
:104A100090BD90B589B004AFF860B9607A603B6032
:104A2000BB6B0222134034D17B6B002B17D0BB6BC6
:104A30000122134013D02823FB181B78002B03D12D
:104A4000BB6B0C2213400AD07B6B013B7B6306E0FF
:104A50007B6A5A1C7A623A6AD31830221A707A6AD0
:104A60003B6B9A420AD27B6A1F2BF1D906E07B6A24
:104A70005A1C7A623A6AD31830221A70BB6B012230
:104A8000134006D07A6A7B6B9A4202D27B6A1F2B54
:104A9000EDD9BB6B1022134056D0BA6B8023DB00DC
:104AA000134016D17B6A002B13D07A6A3B6B9A4273
:104AB00003D07A6A7B6B9A420BD17B6A013B7B62A3
:104AC0007B6A002B05D0FB6A102B02D17B6A013B6D
:104AD0007B62FB6A102B0ED1BB6B202213400AD1E4
:104AE0007B6A1F2B07D87B6A5A1C7A623A6AD318F2
:104AF00078221A701EE0FB6A102B0ED1BB6B2022AD
:104B000013400AD07B6A1F2B07D87B6A5A1C7A6233
:104B10003A6AD31858221A700CE0FB6A022B09D1AA
:104B20007B6A1F2B06D87B6A5A1C7A623A6AD318B2
:104B300062221A707B6A1F2B06D87B6A5A1C7A6223
:104B40003A6AD31830221A707B6A1F2B23D8282385
:104B5000FB181B78002B07D07B6A5A1C7A623A6AD2
:104B6000D3182D221A7016E0BB6B0422134007D015
:104B70007B6A5A1C7A623A6AD3182B221A700AE0AE
:104B8000BB6B0822134006D07B6A5A1C7A623A6AD1
:104B9000D31820221A703C687A68B968F868BB6B31
:104BA00003937B6B02937B6A01933B6A0093230020
:104BB000FFF7E2FE03001800BD4605B090BD90B5BA
:104BC00097B008AFF860B9607A603B6000237B6300
:104BD000BB6C002B03D1FB6D10229343FB65FA6D78
:104BE0008023DB00134002D0BB6C002B33D0BB6CA6
:104BF000396D1800FEF756FE0B001A0033217B18A2
:104C00001A700A00BB181B78092B04D8BB181B7834
:104C10003033DAB20DE0FB6D2022134001D0412386
:104C200000E061233322BA1812789B18DBB20A3BEA
:104C3000DAB27B6B591C796310217918CA54396D2B
:104C4000B86CFEF72FFE0300BB64BB6C002B02D0D8
:104C50007B6B1F2BCBD93C687A68B968F868FB6D11
:104C60000693BB6D05937B6D04933B6D03934C23BF
:104C7000FB181B7802937B6B01931023FB180093A6
:104C80002300FFF7C6FE03001800BD460FB090BD1D
:104C9000B0B596B008AFF860B9607A603B600023A9
:104CA0007B63BB6CFA6C134303D1BB6E102293433E
:104CB000BB66BA6E8023DB00134003D0BB6CFA6C7A
:104CC00013433AD0B86CF96CBA6DFB6DFEF728FE51
:104CD0001000190033243B19021C1A702200BB1863
:104CE0001B78092B04D8BB181B783033DAB20DE0DF
:104CF000BB6E2022134001D0412300E06123332208
:104D0000BA1812789B18DBB20A3BDAB27B6B591CDB
:104D1000796310217918CA54BA6DFB6DB86CF96CBF
:104D2000FEF7FEFD02000B00BA64FB64BB6CFA6C7C
:104D3000134302D07B6B1F2BC4D9BB6D3D687C68CD
:104D4000B968F868BA6E06927A6E05923A6E049265
:104D500003935023FB181B7802937B6B0193102362
:104D6000FB1800932B002200FFF753FE03001800EE
:104D7000BD460EB0B0BD0000F0B59DB006AFF86006
:104D8000B9607A603B6000237B6500220023BA6330
:104D9000FB633A6F7B6F386F796FFFF744F8031E40
:104DA00012D03C687A68B968F8688023FB181B68E1
:104DB0000393FB6F029303230193C54B00932300DE
:104DC000FFF7DAFD03001DE201225242C14B386FAA
:104DD000796FFFF715F8031E12D03C687A68B9683E
:104DE000F8688023FB181B680393FB6F029304236E
:104DF0000193B94B00932300FFF7BEFD030001E2CE
:104E000001225242B54B386F796FFFF707F8031E46
:104E100024D08023FB181B680422134001D0B04B20
:104E200000E0B04B8022BA18126804210A4001D079
:104E3000042200E003223E687D68BC68F868802197
:104E4000791809680391F96F029101920093330078
:104E50002A002100FFF790FD0300D3E10022A24BBE
:104E6000386F796FFEF7DAFF031E07D100229F4BE0
:104E7000386F796FFEF7C4FF031E15D03D687C685C
:104E8000B968F8688023FB181B680493FB6F0393D1
:104E9000BB6F02933A6F7B6F009201932B0022004D
:104EA00000F0B4F90300ADE153243B1900221A705D
:104EB00000220023386F796FFEF7A2FF031E0CD08B
:104EC0003B1901221A703A6F7B6F00200021FEF718
:104ED00024FF02000B003A677B678023FB181A68E7
:104EE0008023DB0013400CD10623BB6709E07B6DF8
:104EF0005A1C7A651022BA183021D154BB6F013B7D
:104F0000BB677B6D1F2B02D8BB6F092BEFD8386FA7
:104F1000796FFEF7B1FF0300FB64F86CFEF794FFB6
:104F200002000B00386F796FFEF7F7FE02000B00EE
:104F3000100019006E4ABB6FDB00D3181A685B685B
:104F4000FEF71BFF02000B003A637B63386B796B43
:104F5000FEF7B6FF0300BB64B86CFEF771FF0200FA
:104F60000B00386B796BFEF7D8FE02000B00BA63BA
:104F7000FB6300225F4BB86BF96BFEF74FFF031E1C
:104F800015D0BB6C0133BB64B86CFEF759FF584AAF
:104F9000BB6FDB00D3181A685B68FEF737FF031E90
:104FA00017D00023BB64FB6C0133FB6411E00022CB
:104FB000504BB86BF96BFEF723FF031E09D1BB6C96
:104FC000002B03D0BB6C0122134002D0BB6C013319
:104FD000BB64BB6F002B3BD1F86CFEF735FF0200C2
:104FE0000B00386F796FFEF798FE02000B00BA6372
:104FF000FB6301231C1C00223E4BB86BF96BFEF7D0
:10500000FFFE031E01D100231C1CE3B2012253400A
:10501000DBB2002B00D188E001231C1C0022354BA1
:10502000B86BF96BFEF7FAFE031E01D100231C1CBE
:10503000E3B201225340DBB2002B00D175E0FB6CE0
:105040000122134000D170E0FB6C0133FB646CE083
:10505000BB6F7B641BE07B6C013B7B64BB6C0A21F8
:105060001800FEF71FFC0B00DAB27B6D591C796546
:105070003032D1B21022BA18D154BB6C0A211800B8
:10508000FEF710FC0300BB64BB6C002B03D07B6DF0
:105090001F2BE0D908E0C04606E07B6D5A1C7A65FC
:1050A0001022BA183021D1547B6D1F2B04D87B6C91
:1050B0005A1E7A64002BF0D17B6D1F2B35D87B6D87
:1050C0005A1C7A651022BA182E21D1542DE0C04600
:1050D000647D0010FFFFEFFF687D0010FFFFEF7F92
:1050E000707D0010787D001065CDCD4165CDCDC1BE
:1050F000187F00100000E03FFB6C0A211800FEF74B
:10510000A9FB0B00DAB27B6D591C79653032D1B244
:105110001022BA18D154FB6C0A211800FEF79AFB32
:105120000300FB64FB6C002B03D07B6D1F2BE3D9CA
:1051300000E0C04680217B181B680222134023D167
:105140007B181B68012213401ED0FB6F002B14D06C
:105150005323FB181B78002B04D17B181B680C22EF
:1051600013400AD0FB6F013BFB6706E07B6D5A1CC6
:105170007A651022BA183021D1547A6DFB6F9A42A9
:1051800002D27B6D1F2BF1D97B6D1F2B27D85323A8
:10519000FB181B78002B07D07B6D5A1C7A651022F8
:1051A000BA182D21D1541AE08023FB181B68042261
:1051B000134007D07B6D5A1C7A651022BA182B2138
:1051C000D1540CE08023FB181B680822134006D042
:1051D0007B6D5A1C7A651022BA182021D1543C6884
:1051E0007A68B968F8688023FB181B680393FB6F23
:1051F00002937B6D01931023FB1800932300FFF7AC
:10520000BBFB03001800BD4617B0F0BDF0B5A7B05A
:1052100006AF78643964FA63BB639826BB191A68D1
:105220005B68B91908684968FEF7FDFD031E13D1D4
:1052300001225242D94BB91908684968FEF7EEFDC0
:10524000031E09D101225242D54BB9190868496899
:10525000FEF7D6FD031E1BD0BD6BFC6B396C786C62
:10526000A823FB181B680493A423FB181B68039353
:10527000A023FB181B6802939823FB181A685B682D
:10528000009201932B002200FFF776FD030081E2DC
:105290003B2338229B18DE190123FB7300220023D5
:1052A0009821791808684968FEF7AAFD031E01D104
:1052B0000023FB73FB7B33703B2338229B18DB19E5
:1052C0001B78002B0FD098217B181B683B609C2318
:1052D000FB181A6880231B0653407B603A687B6882
:1052E00079180A604B60A823FB181A688023DB003A
:1052F000134003D10623A022BA1813609826BB19C5
:105300001A685B68BA64FB64BA6CFB6C11001943E1
:1053100000D108E1BA6CFB6C1B0DBB620023FB6281
:10532000BB6A5B055B0D9F4A94466344FB66BA6C9F
:10533000FB6C00211000884304001B031D0B00239D
:1053400023433B62984B2B437B623B6A7C6ABB6482
:10535000FC64F86EFEF778FD944A954BFEF70DFD60
:1053600002000B0010001900924A934BFEF7DEFC7E
:1053700002000B0014001D00B86CF96C00228F4B6A
:10538000FEF7CBFC02000B00100019008C4A8D4B7D
:10539000FEF7F3FC02000B0020002900FEF7C6FC1C
:1053A00002000B0010001900FEF766FD0300FB670A
:1053B000F86FFEF749FD844A844BFEF7DEFC0200DD
:1053C0000B00100019000022814BFEF7AFFC020019
:1053D0000B0010001900FEF74FFD0300FB66F86F8D
:1053E000FEF732FD7B4A7C4BFEF7C7FC02000B0048
:1053F00014001D00F86EFEF727FD784A784BFEF783
:10540000BCFC02000B0020002900FEF786FC020015
:105410000B003A667B663A6E7B6E386E796EFEF7ED
:10542000ACFC02000B00BA65FB65FB6E6D4A94464E
:105430006344BB61DB17FB61BB691B057B61002318
:105440003B613B697C69BB64FC64BC6CFD6C386E81
:10545000796E02000B00FEF769FC02000B00BA62D5
:10546000FB623A6E7B6E00208021C905FEF755FC79
:1054700002000B003A627B6200225B4BB86DF96D53
:10548000FEF75DFC02000B00100019000022574BD4
:10549000FEF74CFC02000B00B86DF96DFEF74FFCF7
:1054A00002000B00100019000022514BFEF73EFCD9
:1054B00002000B00B86DF96DFEF741FC02000B0015
:1054C000386A796AFEF732FC02000B00B86AF96AA2
:1054D000FEF735FC02000B00100019000022324BD1
:1054E000FEF724FC02000B0020002900FEF745FC1B
:1054F00002000B00BA64FB64BA6CFB6CB919086853
:105500004968FEF77DFC031E0FD0FB6F013BFB6774
:10551000B86CF96C0022354BFEF711FC02000B0051
:10552000BA64FB6401E00023FB67FB6F632B04DCC0
:10553000FB6F633301DB042300E00523BB67A82373
:10554000FB181A6880231B01134000D17AE0BA6C63
:10555000FB6C1100194312D0264A274B98243919A5
:1055600008684968FEF752FC031E5AD00022234BFC
:10557000391908684968FEF743FC031E51D0A02181
:105580007B181B68FA6F9A423ADA7B181A68FB6F2D
:10559000D31A013B7A18136036E0C046FFFFEF7F55
:1055A000FFFFEFFF01FCFFFF0000F03FFB799F5082
:1055B0001344D33FB3C8608B288AC63F0000F83F2E
:1055C00061436F63A787D23F71A379094F930A4064
:1055D0000000E03F1655B5BBB16B0240EF39FAFE53
:1055E000422EE63FFF03000000002C400000244054
:1055F000000018402D431CEBE2361A3F80842E41F8
:105600000023A022BA181360A8217B181B688022EF
:10561000D20013437A1813600023BB670023FB6793
:1056200010E0A0217B181B68002B0BD0A823FB18CF
:105630001A688023DB00134004D07B181B68013BF1
:105640007A181360A422BB181B687B67BB181A6802
:10565000BB6F9A4204D97A6FBB6FD31A7B6701E0A4
:1056600000237B67A823FB181B680222134004D089
:10567000BB6F002B01D000237B67FB6F002B0CD08E
:10568000BA6CFB6C9824391908684968FEF757FB17
:1056900002000B0039190A604B60FB6B7B653B23F2
:1056A00038229B18DB191B78002B0BD09823FB1892
:1056B0001B683B639C23FB181B68802212065A4020
:1056C0007A6305E09823FB185C681B683B637C6386
:1056D000A823FA181368314A1340BC6BFA6B396C73
:1056E000786C04937B6F0393A0257D192B6802933C
:1056F0003D6B7E6B009501962300FFF73DFB030099
:10570000FB63BB6F002B44D0A823FB181B6820222F
:10571000134001D0452000E06520FA6B531CFB6369
:10572000BB6B396C7C6CA047FB6FDA179B1853403E
:105730009C46FB6FDB0FDBB2BA6F013ABD6BFC6BB3
:10574000396C786C052605960492002203920A2291
:1057500002920193634600932B002200FFF72FFA79
:105760000300FB63A823FB181B680222134010D020
:1057700007E0FA6B531CFB63BB6B396C7C6C20201D
:10578000A047FA6B7B6DD31AA422BA1812689A420A
:10579000EFD8FB6B1800BD4621B0F0BDFFF7FFFF4F
:1057A000F0B5C64600B5A8B00AAFF862B9627A6231
:1057B0003B6200237B66BB6A002B01D000F054FCE7
:1057C000AD4BFB6200F050FC3B6A1B78252B0DD0E3
:1057D0003B6A18787A6E531C7B667B6AB96AFC6AEE
:1057E000A0473B6A01333B6200F03EFC3B6A013359
:1057F0003B6200237B673B6A1B78203B102B36D82B
:105800009A009E4BD3181B689F467B6F012213435F
:105810007B673B6A01333B620123BB662AE07B6FF7
:10582000022213437B673B6A01333B620123BB6661
:1058300020E07B6F042213437B673B6A01333B62AA
:105840000123BB6616E07B6F082213437B673B6A2C
:1058500001333B620123BB660CE07B6F10221343D4
:105860007B673B6A01333B620123BB6602E0002396
:10587000BB66C046BB6E002BBDD100233B673B6AB5
:105880001B781800FFF73CF8031E07D02023FB18F5
:105890001800FFF74EF803003B671CE03B6A1B78DB
:1058A0002A2B18D19023FB181B681A1D90217918F8
:1058B0000A601B683B653B6D002B07DA7B6F022299
:1058C00013437B673B6D5B423B6701E03B6D3B678E
:1058D0003B6A01333B620023FB663B6A1B782E2B3D
:1058E0002BD17B6F8022D20013437B673B6A01334D
:1058F0003B623B6A1B781800FFF702F8031E07D0D3
:105900002023FB181800FFF714F80300FB6614E0CF
:105910003B6A1B782A2B10D19023FB181B681A1D99
:10592000902179180A601B68FB64FB6C002B00DA7D
:105930000023FB663B6A01333B623B6A1B78683B92
:10594000122B47D89A004E4BD3181B689F467B6F8B
:105950008022520013437B673B6A01333B623B6A00
:105960001B786C2B38D17B6F8022920013437B67AE
:105970003B6A01333B622FE07B6F802213437B67DE
:105980003B6A01333B623B6A1B78682B26D17B6FF5
:10599000402213437B673B6A01333B621EE07B6F0F
:1059A0008022520013437B673B6A01333B6216E05F
:1059B0007B6F8022920013437B673B6A01333B621B
:1059C0000DE07B6F8022520013437B673B6A0133FB
:1059D0003B6204E0C04602E0C04600E0C0463B6ACD
:1059E0001B78672B28DC252B1DDA30E3693B01226D
:1059F0009A401300234A1A40511E8A41D2B2002A0B
:105A000020D180221A40511E8A41D2B2002A00D0F1
:105A1000B8E28022D20013405A1E9341DBB2002B21
:105A200000D049E213E3253B422B00D90FE39A0053
:105A3000154BD3181B689F46782B00DD07E3692BB5
:105A4000D4DA04E33B6A1B78782B03D03B6A1B78DB
:105A5000582B02D110233B661EE03B6A1B786F2B4C
:105A600002D108233B6617E03B6A1B78622B0DD1FD
:105A700002233B6610E0C046794800107C7D001090
:105A8000C07D0010419000000C7E00100A233B6690
:105A90007B6F102293437B673B6A1B78582B03D1A3
:105AA0007B6F202213437B673B6A1B78692B07D0EF
:105AB0003B6A1B78642B03D07B6F0C2293437B677C
:105AC0007A6F8023DB00134003D07B6F0122934366
:105AD0007B673B6A1B78692B04D03B6A1B78642B7D
